{
  "_format": "hh-sol-artifact-1",
  "contractName": "PokeChain",
  "sourceName": "contracts/pokechain.sol",
  "abi": [
    {
      "inputs": [],
      "stateMutability": "nonpayable",
      "type": "constructor"
    },
    {
      "inputs": [
        {
          "internalType": "address",
          "name": "sender",
          "type": "address"
        },
        {
          "internalType": "uint256",
          "name": "tokenId",
          "type": "uint256"
        },
        {
          "internalType": "address",
          "name": "owner",
          "type": "address"
        }
      ],
      "name": "ERC721IncorrectOwner",
      "type": "error"
    },
    {
      "inputs": [
        {
          "internalType": "address",
          "name": "operator",
          "type": "address"
        },
        {
          "internalType": "uint256",
          "name": "tokenId",
          "type": "uint256"
        }
      ],
      "name": "ERC721InsufficientApproval",
      "type": "error"
    },
    {
      "inputs": [
        {
          "internalType": "address",
          "name": "approver",
          "type": "address"
        }
      ],
      "name": "ERC721InvalidApprover",
      "type": "error"
    },
    {
      "inputs": [
        {
          "internalType": "address",
          "name": "operator",
          "type": "address"
        }
      ],
      "name": "ERC721InvalidOperator",
      "type": "error"
    },
    {
      "inputs": [
        {
          "internalType": "address",
          "name": "owner",
          "type": "address"
        }
      ],
      "name": "ERC721InvalidOwner",
      "type": "error"
    },
    {
      "inputs": [
        {
          "internalType": "address",
          "name": "receiver",
          "type": "address"
        }
      ],
      "name": "ERC721InvalidReceiver",
      "type": "error"
    },
    {
      "inputs": [
        {
          "internalType": "address",
          "name": "sender",
          "type": "address"
        }
      ],
      "name": "ERC721InvalidSender",
      "type": "error"
    },
    {
      "inputs": [
        {
          "internalType": "uint256",
          "name": "tokenId",
          "type": "uint256"
        }
      ],
      "name": "ERC721NonexistentToken",
      "type": "error"
    },
    {
      "anonymous": false,
      "inputs": [
        {
          "indexed": true,
          "internalType": "address",
          "name": "owner",
          "type": "address"
        },
        {
          "indexed": true,
          "internalType": "address",
          "name": "approved",
          "type": "address"
        },
        {
          "indexed": true,
          "internalType": "uint256",
          "name": "tokenId",
          "type": "uint256"
        }
      ],
      "name": "Approval",
      "type": "event"
    },
    {
      "anonymous": false,
      "inputs": [
        {
          "indexed": true,
          "internalType": "address",
          "name": "owner",
          "type": "address"
        },
        {
          "indexed": true,
          "internalType": "address",
          "name": "operator",
          "type": "address"
        },
        {
          "indexed": false,
          "internalType": "bool",
          "name": "approved",
          "type": "bool"
        }
      ],
      "name": "ApprovalForAll",
      "type": "event"
    },
    {
      "anonymous": false,
      "inputs": [
        {
          "indexed": false,
          "internalType": "uint256",
          "name": "_fromTokenId",
          "type": "uint256"
        },
        {
          "indexed": false,
          "internalType": "uint256",
          "name": "_toTokenId",
          "type": "uint256"
        }
      ],
      "name": "BatchMetadataUpdate",
      "type": "event"
    },
    {
      "anonymous": false,
      "inputs": [
        {
          "indexed": false,
          "internalType": "address",
          "name": "trainer",
          "type": "address"
        },
        {
          "indexed": false,
          "internalType": "uint256",
          "name": "pokemon",
          "type": "uint256"
        },
        {
          "indexed": false,
          "internalType": "uint256",
          "name": "stage",
          "type": "uint256"
        }
      ],
      "name": "Evolve",
      "type": "event"
    },
    {
      "anonymous": false,
      "inputs": [
        {
          "indexed": false,
          "internalType": "address",
          "name": "trainer",
          "type": "address"
        },
        {
          "indexed": false,
          "internalType": "uint256",
          "name": "pokemon",
          "type": "uint256"
        },
        {
          "indexed": false,
          "internalType": "uint256",
          "name": "level",
          "type": "uint256"
        }
      ],
      "name": "Level",
      "type": "event"
    },
    {
      "anonymous": false,
      "inputs": [
        {
          "indexed": false,
          "internalType": "uint256",
          "name": "_tokenId",
          "type": "uint256"
        }
      ],
      "name": "MetadataUpdate",
      "type": "event"
    },
    {
      "anonymous": false,
      "inputs": [
        {
          "indexed": false,
          "internalType": "address",
          "name": "trainer",
          "type": "address"
        },
        {
          "indexed": false,
          "internalType": "string",
          "name": "URI",
          "type": "string"
        },
        {
          "indexed": false,
          "internalType": "uint256",
          "name": "tokenaddress",
          "type": "uint256"
        }
      ],
      "name": "RegisterPokemon",
      "type": "event"
    },
    {
      "anonymous": false,
      "inputs": [
        {
          "indexed": false,
          "internalType": "address",
          "name": "from",
          "type": "address"
        },
        {
          "indexed": false,
          "internalType": "address",
          "name": "to",
          "type": "address"
        },
        {
          "indexed": false,
          "internalType": "uint256",
          "name": "pokemon",
          "type": "uint256"
        },
        {
          "indexed": false,
          "internalType": "string[]",
          "name": "",
          "type": "string[]"
        },
        {
          "indexed": false,
          "internalType": "address[]",
          "name": "",
          "type": "address[]"
        }
      ],
      "name": "Request",
      "type": "event"
    },
    {
      "anonymous": false,
      "inputs": [
        {
          "indexed": true,
          "internalType": "address",
          "name": "from",
          "type": "address"
        },
        {
          "indexed": true,
          "internalType": "address",
          "name": "to",
          "type": "address"
        },
        {
          "indexed": true,
          "internalType": "uint256",
          "name": "tokenId",
          "type": "uint256"
        }
      ],
      "name": "Transfer",
      "type": "event"
    },
    {
      "inputs": [
        {
          "internalType": "address",
          "name": "to",
          "type": "address"
        },
        {
          "internalType": "uint256",
          "name": "tokenId",
          "type": "uint256"
        }
      ],
      "name": "approve",
      "outputs": [],
      "stateMutability": "nonpayable",
      "type": "function"
    },
    {
      "inputs": [
        {
          "internalType": "uint256",
          "name": "tradePokeID",
          "type": "uint256"
        },
        {
          "internalType": "address",
          "name": "requester",
          "type": "address"
        }
      ],
      "name": "approvePokemon",
      "outputs": [],
      "stateMutability": "nonpayable",
      "type": "function"
    },
    {
      "inputs": [
        {
          "internalType": "address",
          "name": "owner",
          "type": "address"
        }
      ],
      "name": "balanceOf",
      "outputs": [
        {
          "internalType": "uint256",
          "name": "",
          "type": "uint256"
        }
      ],
      "stateMutability": "view",
      "type": "function"
    },
    {
      "inputs": [
        {
          "internalType": "string",
          "name": "add",
          "type": "string"
        }
      ],
      "name": "getAddy",
      "outputs": [
        {
          "internalType": "address",
          "name": "",
          "type": "address"
        }
      ],
      "stateMutability": "view",
      "type": "function"
    },
    {
      "inputs": [
        {
          "internalType": "uint256",
          "name": "tokenId",
          "type": "uint256"
        }
      ],
      "name": "getApproved",
      "outputs": [
        {
          "internalType": "address",
          "name": "",
          "type": "address"
        }
      ],
      "stateMutability": "view",
      "type": "function"
    },
    {
      "inputs": [
        {
          "internalType": "uint256",
          "name": "pokemon",
          "type": "uint256"
        }
      ],
      "name": "getCost",
      "outputs": [
        {
          "internalType": "uint256",
          "name": "",
          "type": "uint256"
        }
      ],
      "stateMutability": "view",
      "type": "function"
    },
    {
      "inputs": [],
      "name": "getRequestsList",
      "outputs": [
        {
          "internalType": "uint256[][]",
          "name": "",
          "type": "uint256[][]"
        }
      ],
      "stateMutability": "view",
      "type": "function"
    },
    {
      "inputs": [
        {
          "internalType": "address",
          "name": "owner",
          "type": "address"
        },
        {
          "internalType": "address",
          "name": "operator",
          "type": "address"
        }
      ],
      "name": "isApprovedForAll",
      "outputs": [
        {
          "internalType": "bool",
          "name": "",
          "type": "bool"
        }
      ],
      "stateMutability": "view",
      "type": "function"
    },
    {
      "inputs": [
        {
          "internalType": "uint256",
          "name": "pokemon",
          "type": "uint256"
        },
        {
          "internalType": "uint256",
          "name": "level",
          "type": "uint256"
        }
      ],
      "name": "levelUp",
      "outputs": [],
      "stateMutability": "nonpayable",
      "type": "function"
    },
    {
      "inputs": [],
      "name": "name",
      "outputs": [
        {
          "internalType": "string",
          "name": "",
          "type": "string"
        }
      ],
      "stateMutability": "view",
      "type": "function"
    },
    {
      "inputs": [
        {
          "internalType": "uint256",
          "name": "pokemon",
          "type": "uint256"
        }
      ],
      "name": "ownedMon",
      "outputs": [
        {
          "internalType": "bool",
          "name": "",
          "type": "bool"
        }
      ],
      "stateMutability": "view",
      "type": "function"
    },
    {
      "inputs": [
        {
          "internalType": "uint256",
          "name": "tokenId",
          "type": "uint256"
        }
      ],
      "name": "ownerOf",
      "outputs": [
        {
          "internalType": "address",
          "name": "",
          "type": "address"
        }
      ],
      "stateMutability": "view",
      "type": "function"
    },
    {
      "inputs": [
        {
          "internalType": "uint256",
          "name": "wantedPokeID",
          "type": "uint256"
        }
      ],
      "name": "registerPokemon",
      "outputs": [],
      "stateMutability": "nonpayable",
      "type": "function"
    },
    {
      "inputs": [
        {
          "internalType": "uint256",
          "name": "tradePokeID",
          "type": "uint256"
        },
        {
          "internalType": "address",
          "name": "requester",
          "type": "address"
        }
      ],
      "name": "rejectPokemon",
      "outputs": [],
      "stateMutability": "nonpayable",
      "type": "function"
    },
    {
      "inputs": [
        {
          "internalType": "uint256",
          "name": "wantedPokeID",
          "type": "uint256"
        }
      ],
      "name": "requestPokemon",
      "outputs": [
        {
          "internalType": "uint256",
          "name": "",
          "type": "uint256"
        }
      ],
      "stateMutability": "nonpayable",
      "type": "function"
    },
    {
      "inputs": [
        {
          "internalType": "address",
          "name": "from",
          "type": "address"
        },
        {
          "internalType": "address",
          "name": "to",
          "type": "address"
        },
        {
          "internalType": "uint256",
          "name": "tokenId",
          "type": "uint256"
        }
      ],
      "name": "safeTransferFrom",
      "outputs": [],
      "stateMutability": "nonpayable",
      "type": "function"
    },
    {
      "inputs": [
        {
          "internalType": "address",
          "name": "from",
          "type": "address"
        },
        {
          "internalType": "address",
          "name": "to",
          "type": "address"
        },
        {
          "internalType": "uint256",
          "name": "tokenId",
          "type": "uint256"
        },
        {
          "internalType": "bytes",
          "name": "data",
          "type": "bytes"
        }
      ],
      "name": "safeTransferFrom",
      "outputs": [],
      "stateMutability": "nonpayable",
      "type": "function"
    },
    {
      "inputs": [
        {
          "internalType": "address",
          "name": "operator",
          "type": "address"
        },
        {
          "internalType": "bool",
          "name": "approved",
          "type": "bool"
        }
      ],
      "name": "setApprovalForAll",
      "outputs": [],
      "stateMutability": "nonpayable",
      "type": "function"
    },
    {
      "inputs": [
        {
          "internalType": "uint256",
          "name": "pokemon",
          "type": "uint256"
        },
        {
          "internalType": "uint256",
          "name": "cost",
          "type": "uint256"
        }
      ],
      "name": "setCost",
      "outputs": [],
      "stateMutability": "nonpayable",
      "type": "function"
    },
    {
      "inputs": [
        {
          "internalType": "bytes4",
          "name": "interfaceId",
          "type": "bytes4"
        }
      ],
      "name": "supportsInterface",
      "outputs": [
        {
          "internalType": "bool",
          "name": "",
          "type": "bool"
        }
      ],
      "stateMutability": "view",
      "type": "function"
    },
    {
      "inputs": [],
      "name": "symbol",
      "outputs": [
        {
          "internalType": "string",
          "name": "",
          "type": "string"
        }
      ],
      "stateMutability": "view",
      "type": "function"
    },
    {
      "inputs": [
        {
          "internalType": "uint256",
          "name": "tokenId",
          "type": "uint256"
        }
      ],
      "name": "tokenURI",
      "outputs": [
        {
          "internalType": "string",
          "name": "",
          "type": "string"
        }
      ],
      "stateMutability": "view",
      "type": "function"
    },
    {
      "inputs": [
        {
          "internalType": "address",
          "name": "from",
          "type": "address"
        },
        {
          "internalType": "address",
          "name": "to",
          "type": "address"
        },
        {
          "internalType": "uint256",
          "name": "tokenId",
          "type": "uint256"
        }
      ],
      "name": "transferFrom",
      "outputs": [],
      "stateMutability": "nonpayable",
      "type": "function"
    },
    {
      "inputs": [
        {
          "internalType": "address",
          "name": "trainer",
          "type": "address"
        }
      ],
      "name": "whatDoesSomeoneOwn",
      "outputs": [
        {
          "internalType": "uint256[]",
          "name": "",
          "type": "uint256[]"
        }
      ],
      "stateMutability": "view",
      "type": "function"
    },
    {
      "inputs": [
        {
          "internalType": "uint256",
          "name": "pokemon",
          "type": "uint256"
        }
      ],
      "name": "whatLevel",
      "outputs": [
        {
          "internalType": "uint256",
          "name": "",
          "type": "uint256"
        }
      ],
      "stateMutability": "view",
      "type": "function"
    },
    {
      "inputs": [
        {
          "internalType": "uint256",
          "name": "pokemon",
          "type": "uint256"
        }
      ],
      "name": "whatStage",
      "outputs": [
        {
          "internalType": "uint256",
          "name": "",
          "type": "uint256"
        }
      ],
      "stateMutability": "view",
      "type": "function"
    },
    {
      "inputs": [
        {
          "internalType": "uint256",
          "name": "pokemon",
          "type": "uint256"
        }
      ],
      "name": "whatStageCount",
      "outputs": [
        {
          "internalType": "uint256",
          "name": "",
          "type": "uint256"
        }
      ],
      "stateMutability": "view",
      "type": "function"
    }
  ],
  "bytecode": "0x608060405273e1d6e2f8f036179656beb0e2bdb8e326b0e6b094600860006101000a81548173ffffffffffffffffffffffffffffffffffffffff021916908373ffffffffffffffffffffffffffffffffffffffff1602179055503480156200006657600080fd5b506040518060400160405280600981526020017f506f6b65436861696e00000000000000000000000000000000000000000000008152506040518060400160405280600381526020017f504b4d00000000000000000000000000000000000000000000000000000000008152508160009081620000e4919062000772565b508060019081620000f6919062000772565b50505062000103620004b2565b6200010d620004d5565b604051806103600160405280600160ff168152602001600460ff168152602001600760ff168152602001600a60ff168152602001600d60ff168152602001601060ff168152602001601360ff168152602001601560ff168152602001601760ff168152602001601960ff168152602001601b60ff168152602001601d60ff168152602001602060ff168152602001602360ff168152602001602560ff168152602001602760ff168152602001602960ff168152602001602b60ff168152602001602e60ff168152602001603060ff168152602001603260ff168152602001603460ff168152602001603660ff168152602001603860ff168152602001603a60ff168152602001603c60ff168152602001603f60ff168152509150604051806103c00160405280601360ff168152602001601460ff168152602001601560ff168152602001601660ff168152602001601760ff168152602001601860ff168152602001601960ff168152602001601a60ff168152602001601b60ff168152602001602360ff168152602001602460ff168152602001602560ff168152602001602660ff168152602001602760ff168152602001602860ff168152602001602960ff168152602001602a60ff168152602001603060ff168152602001603160ff168152602001603260ff168152602001603360ff168152602001603460ff168152602001603560ff168152602001603660ff168152602001603760ff168152602001603860ff168152602001603960ff168152602001603a60ff168152602001603b60ff168152602001603c60ff1681525090506000806000600190505b6042811015620004a757601b83108015620003a05750808584601b811062000396576200039562000859565b5b602002015160ff16145b15620003e8576001600b600083815260200190815260200160002060006101000a81548160ff0219169083151502179055508280620003df90620008b7565b93505062000415565b6000600b600083815260200190815260200160002060006101000a81548160ff0219169083151502179055505b601e82108015620004425750808483601e811062000438576200043762000859565b5b602002015160ff16145b1562000477576002600c60008381526020019081526020016000208190555081806200046e90620008b7565b92505062000491565b6003600c6000838152602001908152602001600020819055505b80806200049e90620008b7565b91505062000369565b505050505062000904565b604051806103600160405280601b90602082028036833780820191505090505090565b604051806103c00160405280601e90602082028036833780820191505090505090565b600081519050919050565b7f4e487b7100000000000000000000000000000000000000000000000000000000600052604160045260246000fd5b7f4e487b7100000000000000000000000000000000000000000000000000000000600052602260045260246000fd5b600060028204905060018216806200057a57607f821691505b60208210810362000590576200058f62000532565b5b50919050565b60008190508160005260206000209050919050565b60006020601f8301049050919050565b600082821b905092915050565b600060088302620005fa7fffffffffffffffffffffffffffffffffffffffffffffffffffffffffffffffff82620005bb565b620006068683620005bb565b95508019841693508086168417925050509392505050565b6000819050919050565b6000819050919050565b6000620006536200064d62000647846200061e565b62000628565b6200061e565b9050919050565b6000819050919050565b6200066f8362000632565b620006876200067e826200065a565b848454620005c8565b825550505050565b600090565b6200069e6200068f565b620006ab81848462000664565b505050565b5b81811015620006d357620006c760008262000694565b600181019050620006b1565b5050565b601f8211156200072257620006ec8162000596565b620006f784620005ab565b8101602085101562000707578190505b6200071f6200071685620005ab565b830182620006b0565b50505b505050565b600082821c905092915050565b6000620007476000198460080262000727565b1980831691505092915050565b600062000762838362000734565b9150826002028217905092915050565b6200077d82620004f8565b67ffffffffffffffff81111562000799576200079862000503565b5b620007a5825462000561565b620007b2828285620006d7565b600060209050601f831160018114620007ea5760008415620007d5578287015190505b620007e1858262000754565b86555062000851565b601f198416620007fa8662000596565b60005b828110156200082457848901518255600182019150602085019450602081019050620007fd565b8683101562000844578489015162000840601f89168262000734565b8355505b6001600288020188555050505b505050505050565b7f4e487b7100000000000000000000000000000000000000000000000000000000600052603260045260246000fd5b7f4e487b7100000000000000000000000000000000000000000000000000000000600052601160045260246000fd5b6000620008c4826200061e565b91507fffffffffffffffffffffffffffffffffffffffffffffffffffffffffffffffff8203620008f957620008f862000888565b5b600182019050919050565b6144c880620009146000396000f3fe608060405234801561001057600080fd5b50600436106101a95760003560e01c80637696e088116100f9578063a48081cb11610097578063b88d4fde11610071578063b88d4fde14610528578063c87b56dd14610544578063e985e9c514610574578063eb768665146105a4576101a9565b8063a48081cb146104aa578063ac2c2aa3146104da578063b23a4d831461050a576101a9565b8063878ed426116100d3578063878ed4261461041057806395d89b41146104405780639e4c22f81461045e578063a22cb4651461048e576101a9565b80637696e0881461039457806376bb1721146103b05780637fb57105146103e0576101a9565b806323b872dd116101665780635a4dd47d116101405780635a4dd47d146102e85780636352211e146103185780636fe38a841461034857806370a0823114610364576101a9565b806323b872dd1461029457806342842e0e146102b05780635226dc93146102cc576101a9565b806301ffc9a7146101ae57806306bfbb4f146101de57806306fdde03146101fa578063081812fc14610218578063095ea7b3146102485780631ec7ef6014610264575b600080fd5b6101c860048036038101906101c391906133c0565b6105c0565b6040516101d59190613408565b60405180910390f35b6101f860048036038101906101f39190613459565b610621565b005b61020261080e565b60405161020f9190613516565b60405180910390f35b610232600480360381019061022d9190613459565b6108a0565b60405161023f9190613579565b60405180910390f35b610262600480360381019061025d91906135c0565b6108bc565b005b61027e60048036038101906102799190613600565b6108d2565b60405161028b91906136eb565b60405180910390f35b6102ae60048036038101906102a9919061370d565b610969565b005b6102ca60048036038101906102c5919061370d565b610a6b565b005b6102e660048036038101906102e19190613760565b610a8b565b005b61030260048036038101906102fd9190613459565b610c2a565b60405161030f91906137af565b60405180910390f35b610332600480360381019061032d9190613459565b610c47565b60405161033f9190613579565b60405180910390f35b610362600480360381019061035d91906137ca565b610c59565b005b61037e60048036038101906103799190613600565b610cf5565b60405161038b91906137af565b60405180910390f35b6103ae60048036038101906103a99190613760565b610daf565b005b6103ca60048036038101906103c59190613459565b610e16565b6040516103d79190613408565b60405180910390f35b6103fa60048036038101906103f59190613459565b610e43565b60405161040791906137af565b60405180910390f35b61042a60048036038101906104259190613459565b610e63565b60405161043791906137af565b60405180910390f35b610448611360565b6040516104559190613516565b60405180910390f35b6104786004803603810190610473919061393f565b6113f2565b6040516104859190613579565b60405180910390f35b6104a860048036038101906104a391906139b4565b61143a565b005b6104c460048036038101906104bf9190613459565b611450565b6040516104d191906137af565b60405180910390f35b6104f460048036038101906104ef9190613459565b61146d565b60405161050191906137af565b60405180910390f35b61051261148d565b60405161051f9190613b25565b60405180910390f35b610542600480360381019061053d9190613be8565b611569565b005b61055e60048036038101906105599190613459565b61158e565b60405161056b9190613516565b60405180910390f35b61058e60048036038101906105899190613c6b565b6116a1565b60405161059b9190613408565b60405180910390f35b6105be60048036038101906105b991906137ca565b611735565b005b6000634906490660e01b7bffffffffffffffffffffffffffffffffffffffffffffffffffffffff1916827bffffffffffffffffffffffffffffffffffffffffffffffffffffffff1916148061061a5750610619826117bd565b5b9050919050565b80600b600082815260200190815260200160002060009054906101000a900460ff1661064c57600080fd5b600082905061065b338261189f565b6000610666826118bd565b90506106728282611944565b61067a6131b1565b6040518060a00160405280868152602001600073ffffffffffffffffffffffffffffffffffffffff1681526020016001815260200160018152602001600115158152509050600960003373ffffffffffffffffffffffffffffffffffffffff1673ffffffffffffffffffffffffffffffffffffffff16815260200190815260200160002085908060018154018082558091505060019003906000526020600020016000909190919091505580600a60008581526020019081526020016000206000820151816000015560208201518160010160006101000a81548173ffffffffffffffffffffffffffffffffffffffff021916908373ffffffffffffffffffffffffffffffffffffffff160217905550604082015181600201556060820151816003015560808201518160040160006101000a81548160ff0219169083151502179055509050506107cc856001610daf565b7fcdd66c27b5e33dcac77648f23d4482794aef817e94b76aab90b92b35c9e2aa513383856040516107ff93929190613cab565b60405180910390a15050505050565b60606000805461081d90613d18565b80601f016020809104026020016040519081016040528092919081815260200182805461084990613d18565b80156108965780601f1061086b57610100808354040283529160200191610896565b820191906000526020600020905b81548152906001019060200180831161087957829003601f168201915b5050505050905090565b60006108ab826119a0565b506108b582611a28565b9050919050565b6108ce82826108c9611a65565b611a6d565b5050565b6060600960008373ffffffffffffffffffffffffffffffffffffffff1673ffffffffffffffffffffffffffffffffffffffff16815260200190815260200160002080548060200260200160405190810160405280929190818152602001828054801561095d57602002820191906000526020600020905b815481526020019060010190808311610949575b50505050509050919050565b600073ffffffffffffffffffffffffffffffffffffffff168273ffffffffffffffffffffffffffffffffffffffff16036109db5760006040517f64a0ae920000000000000000000000000000000000000000000000000000000081526004016109d29190613579565b60405180910390fd5b60006109ef83836109ea611a65565b611a7f565b90508373ffffffffffffffffffffffffffffffffffffffff168173ffffffffffffffffffffffffffffffffffffffff1614610a65578382826040517f64283d7b000000000000000000000000000000000000000000000000000000008152600401610a5c93929190613d49565b60405180910390fd5b50505050565b610a8683838360405180602001604052806000815250611569565b505050565b813373ffffffffffffffffffffffffffffffffffffffff16610aac82610c47565b73ffffffffffffffffffffffffffffffffffffffff1614610acc57600080fd5b81600a60008581526020019081526020016000206002016000828254610af29190613daf565b925050819055506064600a6000858152602001908152602001600020600201541115610b1d57600080fd5b6010600a60008581526020019081526020016000206002015410158015610b5a57506001600a600085815260200190815260200160002060030154145b15610b6957610b6883611c99565b5b6024600a60008581526020019081526020016000206002015410158015610ba657506002600a600085815260200190815260200160002060030154145b8015610bc557506003600c600085815260200190815260200160002054145b15610bd457610bd383611c99565b5b7ffad5be9f4ac6c1de813a372154d2eaced7085081b790ef2176b34cc456b097093384600a600087815260200190815260200160002060020154604051610c1d93929190613de3565b60405180910390a1505050565b6000600f6000838152602001908152602001600020549050919050565b6000610c52826119a0565b9050919050565b813373ffffffffffffffffffffffffffffffffffffffff16610c7a82610c47565b73ffffffffffffffffffffffffffffffffffffffff1614610c9a57600080fd5b3373ffffffffffffffffffffffffffffffffffffffff168273ffffffffffffffffffffffffffffffffffffffff1603610cd257600080fd5b610cdb83611d60565b610ce582846108bc565b610cef8383612001565b50505050565b60008073ffffffffffffffffffffffffffffffffffffffff168273ffffffffffffffffffffffffffffffffffffffff1603610d685760006040517f89c62b64000000000000000000000000000000000000000000000000000000008152600401610d5f9190613579565b60405180910390fd5b600360008373ffffffffffffffffffffffffffffffffffffffff1673ffffffffffffffffffffffffffffffffffffffff168152602001908152602001600020549050919050565b813373ffffffffffffffffffffffffffffffffffffffff16610dd082610c47565b73ffffffffffffffffffffffffffffffffffffffff1614610df057600080fd5b81600f600085815260200190815260200160002081905550610e1183611d60565b505050565b6000600a600083815260200190815260200160002060040160009054906101000a900460ff169050919050565b6000600a6000838152602001908152602001600020600301549050919050565b600081610e6f81610e16565b610e7857600080fd5b823373ffffffffffffffffffffffffffffffffffffffff16610e9982610c47565b73ffffffffffffffffffffffffffffffffffffffff1603610eb957600080fd5b8360006001905060005b600d6000610ed085610c47565b73ffffffffffffffffffffffffffffffffffffffff1673ffffffffffffffffffffffffffffffffffffffff168152602001908152602001600020805490508110156110805782600d6000610f2386610c47565b73ffffffffffffffffffffffffffffffffffffffff1673ffffffffffffffffffffffffffffffffffffffff1681526020019081526020016000208281548110610f6f57610f6e613e1a565b5b90600052602060002001600181548110610f8c57610f8b613e1a565b5b906000526020600020015414801561105f57503373ffffffffffffffffffffffffffffffffffffffff16611047611042600d6000610fc988610c47565b73ffffffffffffffffffffffffffffffffffffffff1673ffffffffffffffffffffffffffffffffffffffff168152602001908152602001600020848154811061101557611014613e1a565b5b9060005260206000200160008154811061103257611031613e1a565b5b9060005260206000200154612381565b6113f2565b73ffffffffffffffffffffffffffffffffffffffff16145b1561106d5760009150611080565b808061107890613e49565b915050610ec3565b508061108b57600080fd5b6000600f600088815260200190815260200160002054905080600860009054906101000a900473ffffffffffffffffffffffffffffffffffffffff1673ffffffffffffffffffffffffffffffffffffffff166370a08231336040518263ffffffff1660e01b81526004016110ff9190613579565b602060405180830381865afa15801561111c573d6000803e3d6000fd5b505050506040513d601f19601f820116820180604052508101906111409190613ea6565b101561114b57600080fd5b6000600d600061115a8a610c47565b73ffffffffffffffffffffffffffffffffffffffff1673ffffffffffffffffffffffffffffffffffffffff168152602001908152602001600020805490500361123157604051806020016040528060405180604001604052803373ffffffffffffffffffffffffffffffffffffffff1681526020018a815250815250600d60006111e38a610c47565b73ffffffffffffffffffffffffffffffffffffffff1673ffffffffffffffffffffffffffffffffffffffff16815260200190815260200160002090600161122b9291906131f8565b506112d8565b600d600061123e89610c47565b73ffffffffffffffffffffffffffffffffffffffff1673ffffffffffffffffffffffffffffffffffffffff16815260200190815260200160002060405180604001604052803373ffffffffffffffffffffffffffffffffffffffff16815260200189815250908060018154018082558091505060019003906000526020600020016000909190919091509060026112d6929190613253565b505b33600e6112fa3373ffffffffffffffffffffffffffffffffffffffff16612381565b6040516113079190613f0f565b908152602001604051809103902060006101000a81548173ffffffffffffffffffffffffffffffffffffffff021916908373ffffffffffffffffffffffffffffffffffffffff1602179055508095505050505050919050565b60606001805461136f90613d18565b80601f016020809104026020016040519081016040528092919081815260200182805461139b90613d18565b80156113e85780601f106113bd576101008083540402835291602001916113e8565b820191906000526020600020905b8154815290600101906020018083116113cb57829003601f168201915b5050505050905090565b6000600e826040516114049190613f0f565b908152602001604051809103902060009054906101000a900473ffffffffffffffffffffffffffffffffffffffff169050919050565b61144c611445611a65565b838361244f565b5050565b6000600c6000838152602001908152602001600020549050919050565b6000600a6000838152602001908152602001600020600201549050919050565b6060600d60003373ffffffffffffffffffffffffffffffffffffffff1673ffffffffffffffffffffffffffffffffffffffff168152602001908152602001600020805480602002602001604051908101604052809291908181526020016000905b828210156115605783829060005260206000200180548060200260200160405190810160405280929190818152602001828054801561154c57602002820191906000526020600020905b815481526020019060010190808311611538575b5050505050815260200190600101906114ee565b50505050905090565b611574848484610969565b61158861157f611a65565b858585856125be565b50505050565b6060611599826119a0565b5060006006600084815260200190815260200160002080546115ba90613d18565b80601f01602080910402602001604051908101604052809291908181526020018280546115e690613d18565b80156116335780601f1061160857610100808354040283529160200191611633565b820191906000526020600020905b81548152906001019060200180831161161657829003601f168201915b50505050509050600061164461276f565b9050600081510361165957819250505061169c565b60008251111561168e578082604051602001611676929190613f26565b6040516020818303038152906040529250505061169c565b61169784612786565b925050505b919050565b6000600560008473ffffffffffffffffffffffffffffffffffffffff1673ffffffffffffffffffffffffffffffffffffffff16815260200190815260200160002060008373ffffffffffffffffffffffffffffffffffffffff1673ffffffffffffffffffffffffffffffffffffffff16815260200190815260200160002060009054906101000a900460ff16905092915050565b813373ffffffffffffffffffffffffffffffffffffffff1661175682610c47565b73ffffffffffffffffffffffffffffffffffffffff161461177657600080fd5b3373ffffffffffffffffffffffffffffffffffffffff168273ffffffffffffffffffffffffffffffffffffffff16036117ae57600080fd5b6117b883836127ef565b505050565b60007f80ac58cd000000000000000000000000000000000000000000000000000000007bffffffffffffffffffffffffffffffffffffffffffffffffffffffff1916827bffffffffffffffffffffffffffffffffffffffffffffffffffffffff1916148061188857507f5b5e139f000000000000000000000000000000000000000000000000000000007bffffffffffffffffffffffffffffffffffffffffffffffffffffffff1916827bffffffffffffffffffffffffffffffffffffffffffffffffffffffff1916145b80611898575061189782612b50565b5b9050919050565b6118b9828260405180602001604052806000815250612bba565b5050565b606060006118c961276f565b9050806040516020016118dc9190614008565b6040516020818303038152906040529050806118f784612381565b604051602001611908929190613f26565b60405160208183030381529060405290508060405160200161192a9190614050565b604051602081830303815290604052905080915050919050565b806006600084815260200190815260200160002090816119649190614222565b507ff8e1a15aba9398e019f0b49df1a4fde98ee17ae345cb5f6b5e2c27f5033e8ce78260405161199491906137af565b60405180910390a15050565b6000806119ac83612bde565b9050600073ffffffffffffffffffffffffffffffffffffffff168173ffffffffffffffffffffffffffffffffffffffff1603611a1f57826040517f7e273289000000000000000000000000000000000000000000000000000000008152600401611a1691906137af565b60405180910390fd5b80915050919050565b60006004600083815260200190815260200160002060009054906101000a900473ffffffffffffffffffffffffffffffffffffffff169050919050565b600033905090565b611a7a8383836001612c1b565b505050565b600080611a8b84612bde565b9050600073ffffffffffffffffffffffffffffffffffffffff168373ffffffffffffffffffffffffffffffffffffffff1614611acd57611acc818486612de0565b5b600073ffffffffffffffffffffffffffffffffffffffff168173ffffffffffffffffffffffffffffffffffffffff1614611b5e57611b0f600085600080612c1b565b6001600360008373ffffffffffffffffffffffffffffffffffffffff1673ffffffffffffffffffffffffffffffffffffffff168152602001908152602001600020600082825403925050819055505b600073ffffffffffffffffffffffffffffffffffffffff168573ffffffffffffffffffffffffffffffffffffffff1614611be1576001600360008773ffffffffffffffffffffffffffffffffffffffff1673ffffffffffffffffffffffffffffffffffffffff168152602001908152602001600020600082825401925050819055505b846002600086815260200190815260200160002060006101000a81548173ffffffffffffffffffffffffffffffffffffffff021916908373ffffffffffffffffffffffffffffffffffffffff160217905550838573ffffffffffffffffffffffffffffffffffffffff168273ffffffffffffffffffffffffffffffffffffffff167fddf252ad1be2c89b69c2b068fc378daa952ba7f163c4a11628f55a4df523b3ef60405160405180910390a4809150509392505050565b6001600a60008381526020019081526020016000206003016000828254611cc09190613daf565b925050819055506000611cff826001600a600086815260200190815260200160002060030154611cf091906142f4565b611cfa9190613daf565b6118bd565b9050611d0b8282611944565b7f3a52c2006b3ba04c24756faab221bf2f28ec6b58687891b11368849b21340f0e3383600a600086815260200190815260200160002060030154604051611d5493929190613de3565b60405180910390a15050565b60005b600d6000611d7084610c47565b73ffffffffffffffffffffffffffffffffffffffff1673ffffffffffffffffffffffffffffffffffffffff16815260200190815260200160002080549050811015611ffd5781600d6000611dc385610c47565b73ffffffffffffffffffffffffffffffffffffffff1673ffffffffffffffffffffffffffffffffffffffff1681526020019081526020016000208281548110611e0f57611e0e613e1a565b5b90600052602060002001600181548110611e2c57611e2b613e1a565b5b906000526020600020015403611fea57600d6000611e4984610c47565b73ffffffffffffffffffffffffffffffffffffffff1673ffffffffffffffffffffffffffffffffffffffff1681526020019081526020016000206001600d6000611e9286610c47565b73ffffffffffffffffffffffffffffffffffffffff1673ffffffffffffffffffffffffffffffffffffffff16815260200190815260200160002080549050611eda91906142f4565b81548110611eeb57611eea613e1a565b5b90600052602060002001600d6000611f0285610c47565b73ffffffffffffffffffffffffffffffffffffffff1673ffffffffffffffffffffffffffffffffffffffff1681526020019081526020016000208281548110611f4e57611f4d613e1a565b5b90600052602060002001908054611f669291906132a0565b50600d6000611f7484610c47565b73ffffffffffffffffffffffffffffffffffffffff1673ffffffffffffffffffffffffffffffffffffffff168152602001908152602001600020805480611fbe57611fbd614328565b5b600190038181906000526020600020016000611fda91906132f2565b9055611fe582611d60565b611ffd565b8080611ff590613e49565b915050611d63565b5050565b600080600f600085815260200190815260200160002054905080600860009054906101000a900473ffffffffffffffffffffffffffffffffffffffff1673ffffffffffffffffffffffffffffffffffffffff166370a08231856040518263ffffffff1660e01b81526004016120769190613579565b602060405180830381865afa158015612093573d6000803e3d6000fd5b505050506040513d601f19601f820116820180604052508101906120b79190613ea6565b10156120c257600080fd5b60006120cd85610c47565b90506120da818587610a6b565b60005b600960008373ffffffffffffffffffffffffffffffffffffffff1673ffffffffffffffffffffffffffffffffffffffff1681526020019081526020016000208054905081101561230f5785600960008473ffffffffffffffffffffffffffffffffffffffff1673ffffffffffffffffffffffffffffffffffffffff168152602001908152602001600020828154811061217957612178613e1a565b5b9060005260206000200154036122fc57600960008373ffffffffffffffffffffffffffffffffffffffff1673ffffffffffffffffffffffffffffffffffffffff1681526020019081526020016000206001600960008573ffffffffffffffffffffffffffffffffffffffff1673ffffffffffffffffffffffffffffffffffffffff1681526020019081526020016000208054905061221791906142f4565b8154811061222857612227613e1a565b5b9060005260206000200154600960008473ffffffffffffffffffffffffffffffffffffffff1673ffffffffffffffffffffffffffffffffffffffff168152602001908152602001600020828154811061228457612283613e1a565b5b9060005260206000200181905550600960008373ffffffffffffffffffffffffffffffffffffffff1673ffffffffffffffffffffffffffffffffffffffff1681526020019081526020016000208054806122e1576122e0614328565b5b6001900381819060005260206000200160009055905561230f565b808061230790613e49565b9150506120dd565b50600960008573ffffffffffffffffffffffffffffffffffffffff1673ffffffffffffffffffffffffffffffffffffffff168152602001908152602001600020859080600181540180825580915050600190039060005260206000200160009091909190915055819250505092915050565b60606000600161239084612ea4565b01905060008167ffffffffffffffff8111156123af576123ae613814565b5b6040519080825280601f01601f1916602001820160405280156123e15781602001600182028036833780820191505090505b509050600082602001820190505b600115612444578080600190039150507f3031323334353637383961626364656600000000000000000000000000000000600a86061a8153600a858161243857612437614357565b5b049450600085036123ef575b819350505050919050565b600073ffffffffffffffffffffffffffffffffffffffff168273ffffffffffffffffffffffffffffffffffffffff16036124c057816040517f5b08ba180000000000000000000000000000000000000000000000000000000081526004016124b79190613579565b60405180910390fd5b80600560008573ffffffffffffffffffffffffffffffffffffffff1673ffffffffffffffffffffffffffffffffffffffff16815260200190815260200160002060008473ffffffffffffffffffffffffffffffffffffffff1673ffffffffffffffffffffffffffffffffffffffff16815260200190815260200160002060006101000a81548160ff0219169083151502179055508173ffffffffffffffffffffffffffffffffffffffff168373ffffffffffffffffffffffffffffffffffffffff167f17307eab39ab6107e8899845ad3d59bd9653f200f220920489ca2b5937696c31836040516125b19190613408565b60405180910390a3505050565b60008373ffffffffffffffffffffffffffffffffffffffff163b1115612768578273ffffffffffffffffffffffffffffffffffffffff1663150b7a02868685856040518563ffffffff1660e01b815260040161261d94939291906143db565b6020604051808303816000875af192505050801561265957506040513d601f19601f82011682018060405250810190612656919061443c565b60015b6126dd573d8060008114612689576040519150601f19603f3d011682016040523d82523d6000602084013e61268e565b606091505b5060008151036126d557836040517f64a0ae920000000000000000000000000000000000000000000000000000000081526004016126cc9190613579565b60405180910390fd5b805181602001fd5b63150b7a0260e01b7bffffffffffffffffffffffffffffffffffffffffffffffffffffffff1916817bffffffffffffffffffffffffffffffffffffffffffffffffffffffff19161461276657836040517f64a0ae9200000000000000000000000000000000000000000000000000000000815260040161275d9190613579565b60405180910390fd5b505b5050505050565b606060405180602001604052806000815250905090565b6060612791826119a0565b50600061279c61276f565b905060008151116127bc57604051806020016040528060008152506127e7565b806127c684612381565b6040516020016127d7929190613f26565b6040516020818303038152906040525b915050919050565b60005b600d60006127ff85610c47565b73ffffffffffffffffffffffffffffffffffffffff1673ffffffffffffffffffffffffffffffffffffffff16815260200190815260200160002080549050811015612b4b5782600d600061285286610c47565b73ffffffffffffffffffffffffffffffffffffffff1673ffffffffffffffffffffffffffffffffffffffff168152602001908152602001600020828154811061289e5761289d613e1a565b5b906000526020600020016001815481106128bb576128ba613e1a565b5b906000526020600020015414801561298e57508173ffffffffffffffffffffffffffffffffffffffff16612976612971600d60006128f888610c47565b73ffffffffffffffffffffffffffffffffffffffff1673ffffffffffffffffffffffffffffffffffffffff168152602001908152602001600020848154811061294457612943613e1a565b5b9060005260206000200160008154811061296157612960613e1a565b5b9060005260206000200154612381565b6113f2565b73ffffffffffffffffffffffffffffffffffffffff16145b15612b3857600d60006129a085610c47565b73ffffffffffffffffffffffffffffffffffffffff1673ffffffffffffffffffffffffffffffffffffffff1681526020019081526020016000206001600d60006129e987610c47565b73ffffffffffffffffffffffffffffffffffffffff1673ffffffffffffffffffffffffffffffffffffffff16815260200190815260200160002080549050612a3191906142f4565b81548110612a4257612a41613e1a565b5b90600052602060002001600d6000612a5986610c47565b73ffffffffffffffffffffffffffffffffffffffff1673ffffffffffffffffffffffffffffffffffffffff1681526020019081526020016000208281548110612aa557612aa4613e1a565b5b90600052602060002001908054612abd9291906132a0565b50600d6000612acb85610c47565b73ffffffffffffffffffffffffffffffffffffffff1673ffffffffffffffffffffffffffffffffffffffff168152602001908152602001600020805480612b1557612b14614328565b5b600190038181906000526020600020016000612b3191906132f2565b9055612b4b565b8080612b4390613e49565b9150506127f2565b505050565b60007f01ffc9a7000000000000000000000000000000000000000000000000000000007bffffffffffffffffffffffffffffffffffffffffffffffffffffffff1916827bffffffffffffffffffffffffffffffffffffffffffffffffffffffff1916149050919050565b612bc48383612ff7565b612bd9612bcf611a65565b60008585856125be565b505050565b60006002600083815260200190815260200160002060009054906101000a900473ffffffffffffffffffffffffffffffffffffffff169050919050565b8080612c545750600073ffffffffffffffffffffffffffffffffffffffff168273ffffffffffffffffffffffffffffffffffffffff1614155b15612d88576000612c64846119a0565b9050600073ffffffffffffffffffffffffffffffffffffffff168373ffffffffffffffffffffffffffffffffffffffff1614158015612ccf57508273ffffffffffffffffffffffffffffffffffffffff168173ffffffffffffffffffffffffffffffffffffffff1614155b8015612ce25750612ce081846116a1565b155b15612d2457826040517fa9fbf51f000000000000000000000000000000000000000000000000000000008152600401612d1b9190613579565b60405180910390fd5b8115612d8657838573ffffffffffffffffffffffffffffffffffffffff168273ffffffffffffffffffffffffffffffffffffffff167f8c5be1e5ebec7d5bd14f71427d1e84f3dd0314c0f7b2291e5b200ac8c7c3b92560405160405180910390a45b505b836004600085815260200190815260200160002060006101000a81548173ffffffffffffffffffffffffffffffffffffffff021916908373ffffffffffffffffffffffffffffffffffffffff16021790555050505050565b612deb8383836130f0565b612e9f57600073ffffffffffffffffffffffffffffffffffffffff168373ffffffffffffffffffffffffffffffffffffffff1603612e6057806040517f7e273289000000000000000000000000000000000000000000000000000000008152600401612e5791906137af565b60405180910390fd5b81816040517f177e802f000000000000000000000000000000000000000000000000000000008152600401612e96929190614469565b60405180910390fd5b505050565b600080600090507a184f03e93ff9f4daa797ed6e38ed64bf6a1f0100000000000000008310612f02577a184f03e93ff9f4daa797ed6e38ed64bf6a1f0100000000000000008381612ef857612ef7614357565b5b0492506040810190505b6d04ee2d6d415b85acef81000000008310612f3f576d04ee2d6d415b85acef81000000008381612f3557612f34614357565b5b0492506020810190505b662386f26fc100008310612f6e57662386f26fc100008381612f6457612f63614357565b5b0492506010810190505b6305f5e1008310612f97576305f5e1008381612f8d57612f8c614357565b5b0492506008810190505b6127108310612fbc576127108381612fb257612fb1614357565b5b0492506004810190505b60648310612fdf5760648381612fd557612fd4614357565b5b0492506002810190505b600a8310612fee576001810190505b80915050919050565b600073ffffffffffffffffffffffffffffffffffffffff168273ffffffffffffffffffffffffffffffffffffffff16036130695760006040517f64a0ae920000000000000000000000000000000000000000000000000000000081526004016130609190613579565b60405180910390fd5b600061307783836000611a7f565b9050600073ffffffffffffffffffffffffffffffffffffffff168173ffffffffffffffffffffffffffffffffffffffff16146130eb5760006040517f73c6ac6e0000000000000000000000000000000000000000000000000000000081526004016130e29190613579565b60405180910390fd5b505050565b60008073ffffffffffffffffffffffffffffffffffffffff168373ffffffffffffffffffffffffffffffffffffffff16141580156131a857508273ffffffffffffffffffffffffffffffffffffffff168473ffffffffffffffffffffffffffffffffffffffff161480613169575061316884846116a1565b5b806131a757508273ffffffffffffffffffffffffffffffffffffffff1661318f83611a28565b73ffffffffffffffffffffffffffffffffffffffff16145b5b90509392505050565b6040518060a0016040528060008152602001600073ffffffffffffffffffffffffffffffffffffffff16815260200160008152602001600081526020016000151581525090565b828054828255906000526020600020908101928215613242579160200282015b8281111561324157825182906002613231929190613253565b5091602001919060010190613218565b5b50905061324f9190613313565b5090565b82805482825590600052602060002090810192821561328f579160200282015b8281111561328e578251825591602001919060010190613273565b5b50905061329c9190613337565b5090565b8280548282559060005260206000209081019282156132e15760005260206000209182015b828111156132e05782548255916001019190600101906132c5565b5b5090506132ee9190613337565b5090565b50805460008255906000526020600020908101906133109190613337565b50565b5b80821115613333576000818161332a91906132f2565b50600101613314565b5090565b5b80821115613350576000816000905550600101613338565b5090565b6000604051905090565b600080fd5b600080fd5b60007fffffffff0000000000000000000000000000000000000000000000000000000082169050919050565b61339d81613368565b81146133a857600080fd5b50565b6000813590506133ba81613394565b92915050565b6000602082840312156133d6576133d561335e565b5b60006133e4848285016133ab565b91505092915050565b60008115159050919050565b613402816133ed565b82525050565b600060208201905061341d60008301846133f9565b92915050565b6000819050919050565b61343681613423565b811461344157600080fd5b50565b6000813590506134538161342d565b92915050565b60006020828403121561346f5761346e61335e565b5b600061347d84828501613444565b91505092915050565b600081519050919050565b600082825260208201905092915050565b60005b838110156134c05780820151818401526020810190506134a5565b60008484015250505050565b6000601f19601f8301169050919050565b60006134e882613486565b6134f28185613491565b93506135028185602086016134a2565b61350b816134cc565b840191505092915050565b6000602082019050818103600083015261353081846134dd565b905092915050565b600073ffffffffffffffffffffffffffffffffffffffff82169050919050565b600061356382613538565b9050919050565b61357381613558565b82525050565b600060208201905061358e600083018461356a565b92915050565b61359d81613558565b81146135a857600080fd5b50565b6000813590506135ba81613594565b92915050565b600080604083850312156135d7576135d661335e565b5b60006135e5858286016135ab565b92505060206135f685828601613444565b9150509250929050565b6000602082840312156136165761361561335e565b5b6000613624848285016135ab565b91505092915050565b600081519050919050565b600082825260208201905092915050565b6000819050602082019050919050565b61366281613423565b82525050565b60006136748383613659565b60208301905092915050565b6000602082019050919050565b60006136988261362d565b6136a28185613638565b93506136ad83613649565b8060005b838110156136de5781516136c58882613668565b97506136d083613680565b9250506001810190506136b1565b5085935050505092915050565b60006020820190508181036000830152613705818461368d565b905092915050565b6000806000606084860312156137265761372561335e565b5b6000613734868287016135ab565b9350506020613745868287016135ab565b925050604061375686828701613444565b9150509250925092565b600080604083850312156137775761377661335e565b5b600061378585828601613444565b925050602061379685828601613444565b9150509250929050565b6137a981613423565b82525050565b60006020820190506137c460008301846137a0565b92915050565b600080604083850312156137e1576137e061335e565b5b60006137ef85828601613444565b9250506020613800858286016135ab565b9150509250929050565b600080fd5b600080fd5b7f4e487b7100000000000000000000000000000000000000000000000000000000600052604160045260246000fd5b61384c826134cc565b810181811067ffffffffffffffff8211171561386b5761386a613814565b5b80604052505050565b600061387e613354565b905061388a8282613843565b919050565b600067ffffffffffffffff8211156138aa576138a9613814565b5b6138b3826134cc565b9050602081019050919050565b82818337600083830152505050565b60006138e26138dd8461388f565b613874565b9050828152602081018484840111156138fe576138fd61380f565b5b6139098482856138c0565b509392505050565b600082601f8301126139265761392561380a565b5b81356139368482602086016138cf565b91505092915050565b6000602082840312156139555761395461335e565b5b600082013567ffffffffffffffff81111561397357613972613363565b5b61397f84828501613911565b91505092915050565b613991816133ed565b811461399c57600080fd5b50565b6000813590506139ae81613988565b92915050565b600080604083850312156139cb576139ca61335e565b5b60006139d9858286016135ab565b92505060206139ea8582860161399f565b9150509250929050565b600081519050919050565b600082825260208201905092915050565b6000819050602082019050919050565b600082825260208201905092915050565b6000613a3c8261362d565b613a468185613a20565b9350613a5183613649565b8060005b83811015613a82578151613a698882613668565b9750613a7483613680565b925050600181019050613a55565b5085935050505092915050565b6000613a9b8383613a31565b905092915050565b6000602082019050919050565b6000613abb826139f4565b613ac581856139ff565b935083602082028501613ad785613a10565b8060005b85811015613b135784840389528151613af48582613a8f565b9450613aff83613aa3565b925060208a01995050600181019050613adb565b50829750879550505050505092915050565b60006020820190508181036000830152613b3f8184613ab0565b905092915050565b600067ffffffffffffffff821115613b6257613b61613814565b5b613b6b826134cc565b9050602081019050919050565b6000613b8b613b8684613b47565b613874565b905082815260208101848484011115613ba757613ba661380f565b5b613bb28482856138c0565b509392505050565b600082601f830112613bcf57613bce61380a565b5b8135613bdf848260208601613b78565b91505092915050565b60008060008060808587031215613c0257613c0161335e565b5b6000613c10878288016135ab565b9450506020613c21878288016135ab565b9350506040613c3287828801613444565b925050606085013567ffffffffffffffff811115613c5357613c52613363565b5b613c5f87828801613bba565b91505092959194509250565b60008060408385031215613c8257613c8161335e565b5b6000613c90858286016135ab565b9250506020613ca1858286016135ab565b9150509250929050565b6000606082019050613cc0600083018661356a565b8181036020830152613cd281856134dd565b9050613ce160408301846137a0565b949350505050565b7f4e487b7100000000000000000000000000000000000000000000000000000000600052602260045260246000fd5b60006002820490506001821680613d3057607f821691505b602082108103613d4357613d42613ce9565b5b50919050565b6000606082019050613d5e600083018661356a565b613d6b60208301856137a0565b613d78604083018461356a565b949350505050565b7f4e487b7100000000000000000000000000000000000000000000000000000000600052601160045260246000fd5b6000613dba82613423565b9150613dc583613423565b9250828201905080821115613ddd57613ddc613d80565b5b92915050565b6000606082019050613df8600083018661356a565b613e0560208301856137a0565b613e1260408301846137a0565b949350505050565b7f4e487b7100000000000000000000000000000000000000000000000000000000600052603260045260246000fd5b6000613e5482613423565b91507fffffffffffffffffffffffffffffffffffffffffffffffffffffffffffffffff8203613e8657613e85613d80565b5b600182019050919050565b600081519050613ea08161342d565b92915050565b600060208284031215613ebc57613ebb61335e565b5b6000613eca84828501613e91565b91505092915050565b600081905092915050565b6000613ee982613486565b613ef38185613ed3565b9350613f038185602086016134a2565b80840191505092915050565b6000613f1b8284613ede565b915081905092915050565b6000613f328285613ede565b9150613f3e8284613ede565b91508190509392505050565b7f68747470733a2f2f6d6167656e74612d746f702d6170652d3630342e6d79706960008201527f6e6174612e636c6f75642f697066732f62616679626569676b6862736e6e707360208201527f723578657a3332326e7768623376796d346d3563367735356a357571346e787160408201527f6b776f34777178656470752f0000000000000000000000000000000000000000606082015250565b6000613ff2606c83613ed3565b9150613ffd82613f4a565b606c82019050919050565b600061401382613fe5565b915061401f8284613ede565b915081905092915050565b7f2e6a736f6e000000000000000000000000000000000000000000000000000000815250565b600061405c8284613ede565b91506140678261402a565b60058201915081905092915050565b60008190508160005260206000209050919050565b60006020601f8301049050919050565b600082821b905092915050565b6000600883026140d87fffffffffffffffffffffffffffffffffffffffffffffffffffffffffffffffff8261409b565b6140e2868361409b565b95508019841693508086168417925050509392505050565b6000819050919050565b600061411f61411a61411584613423565b6140fa565b613423565b9050919050565b6000819050919050565b61413983614104565b61414d61414582614126565b8484546140a8565b825550505050565b600090565b614162614155565b61416d818484614130565b505050565b5b818110156141915761418660008261415a565b600181019050614173565b5050565b601f8211156141d6576141a781614076565b6141b08461408b565b810160208510156141bf578190505b6141d36141cb8561408b565b830182614172565b50505b505050565b600082821c905092915050565b60006141f9600019846008026141db565b1980831691505092915050565b600061421283836141e8565b9150826002028217905092915050565b61422b82613486565b67ffffffffffffffff81111561424457614243613814565b5b61424e8254613d18565b614259828285614195565b600060209050601f83116001811461428c576000841561427a578287015190505b6142848582614206565b8655506142ec565b601f19841661429a86614076565b60005b828110156142c25784890151825560018201915060208501945060208101905061429d565b868310156142df57848901516142db601f8916826141e8565b8355505b6001600288020188555050505b505050505050565b60006142ff82613423565b915061430a83613423565b925082820390508181111561432257614321613d80565b5b92915050565b7f4e487b7100000000000000000000000000000000000000000000000000000000600052603160045260246000fd5b7f4e487b7100000000000000000000000000000000000000000000000000000000600052601260045260246000fd5b600081519050919050565b600082825260208201905092915050565b60006143ad82614386565b6143b78185614391565b93506143c78185602086016134a2565b6143d0816134cc565b840191505092915050565b60006080820190506143f0600083018761356a565b6143fd602083018661356a565b61440a60408301856137a0565b818103606083015261441c81846143a2565b905095945050505050565b60008151905061443681613394565b92915050565b6000602082840312156144525761445161335e565b5b600061446084828501614427565b91505092915050565b600060408201905061447e600083018561356a565b61448b60208301846137a0565b939250505056fea2646970667358221220b7bf2f40dcbd35659c710d23eeb974782b472d6716502f19f5600a1fa1f7a23564736f6c63430008140033",
  "linkReferences": {},
  "deployedLinkReferences": {}
}