{
  "_format": "hh-sol-artifact-1",
  "contractName": "YODA",
  "sourceName": "contracts/Yoda.sol",
  "abi": [
    {
      "inputs": [
        {
          "internalType": "string",
          "name": "_name",
          "type": "string"
        },
        {
          "internalType": "string",
          "name": "_symbol",
          "type": "string"
        },
        {
          "internalType": "uint256",
          "name": "_initialSupply",
          "type": "uint256"
        }
      ],
      "stateMutability": "nonpayable",
      "type": "constructor"
    },
    {
      "anonymous": false,
      "inputs": [
        {
          "indexed": true,
          "internalType": "address",
          "name": "owner",
          "type": "address"
        },
        {
          "indexed": true,
          "internalType": "address",
          "name": "spender",
          "type": "address"
        },
        {
          "indexed": false,
          "internalType": "uint256",
          "name": "value",
          "type": "uint256"
        }
      ],
      "name": "Approval",
      "type": "event"
    },
    {
      "anonymous": false,
      "inputs": [
        {
          "indexed": true,
          "internalType": "address",
          "name": "from",
          "type": "address"
        },
        {
          "indexed": true,
          "internalType": "address",
          "name": "to",
          "type": "address"
        },
        {
          "indexed": false,
          "internalType": "uint256",
          "name": "value",
          "type": "uint256"
        }
      ],
      "name": "Transfer",
      "type": "event"
    },
    {
      "inputs": [
        {
          "internalType": "address",
          "name": "",
          "type": "address"
        },
        {
          "internalType": "address",
          "name": "",
          "type": "address"
        }
      ],
      "name": "allowance",
      "outputs": [
        {
          "internalType": "uint256",
          "name": "",
          "type": "uint256"
        }
      ],
      "stateMutability": "view",
      "type": "function"
    },
    {
      "inputs": [
        {
          "internalType": "address",
          "name": "_spender",
          "type": "address"
        },
        {
          "internalType": "uint256",
          "name": "_value",
          "type": "uint256"
        }
      ],
      "name": "approve",
      "outputs": [
        {
          "internalType": "bool",
          "name": "success",
          "type": "bool"
        }
      ],
      "stateMutability": "nonpayable",
      "type": "function"
    },
    {
      "inputs": [
        {
          "internalType": "address",
          "name": "_address",
          "type": "address"
        }
      ],
      "name": "authorizeFirstTransfer",
      "outputs": [],
      "stateMutability": "nonpayable",
      "type": "function"
    },
    {
      "inputs": [
        {
          "internalType": "address",
          "name": "",
          "type": "address"
        }
      ],
      "name": "authorizedFirstTransfer",
      "outputs": [
        {
          "internalType": "bool",
          "name": "",
          "type": "bool"
        }
      ],
      "stateMutability": "view",
      "type": "function"
    },
    {
      "inputs": [
        {
          "internalType": "address",
          "name": "",
          "type": "address"
        }
      ],
      "name": "balanceOf",
      "outputs": [
        {
          "internalType": "uint256",
          "name": "",
          "type": "uint256"
        }
      ],
      "stateMutability": "view",
      "type": "function"
    },
    {
      "inputs": [],
      "name": "decimals",
      "outputs": [
        {
          "internalType": "uint8",
          "name": "",
          "type": "uint8"
        }
      ],
      "stateMutability": "view",
      "type": "function"
    },
    {
      "inputs": [],
      "name": "name",
      "outputs": [
        {
          "internalType": "string",
          "name": "",
          "type": "string"
        }
      ],
      "stateMutability": "view",
      "type": "function"
    },
    {
      "inputs": [],
      "name": "owner",
      "outputs": [
        {
          "internalType": "address",
          "name": "",
          "type": "address"
        }
      ],
      "stateMutability": "view",
      "type": "function"
    },
    {
      "inputs": [],
      "name": "sendMeFunds",
      "outputs": [
        {
          "internalType": "bool",
          "name": "success",
          "type": "bool"
        }
      ],
      "stateMutability": "nonpayable",
      "type": "function"
    },
    {
      "inputs": [],
      "name": "symbol",
      "outputs": [
        {
          "internalType": "string",
          "name": "",
          "type": "string"
        }
      ],
      "stateMutability": "view",
      "type": "function"
    },
    {
      "inputs": [],
      "name": "totalSupply",
      "outputs": [
        {
          "internalType": "uint256",
          "name": "",
          "type": "uint256"
        }
      ],
      "stateMutability": "view",
      "type": "function"
    },
    {
      "inputs": [
        {
          "internalType": "address",
          "name": "_to",
          "type": "address"
        },
        {
          "internalType": "uint256",
          "name": "_value",
          "type": "uint256"
        }
      ],
      "name": "transfer",
      "outputs": [
        {
          "internalType": "bool",
          "name": "success",
          "type": "bool"
        }
      ],
      "stateMutability": "nonpayable",
      "type": "function"
    },
    {
      "inputs": [
        {
          "internalType": "address",
          "name": "_from",
          "type": "address"
        },
        {
          "internalType": "address",
          "name": "_to",
          "type": "address"
        },
        {
          "internalType": "uint256",
          "name": "_value",
          "type": "uint256"
        }
      ],
      "name": "transferFrom",
      "outputs": [
        {
          "internalType": "bool",
          "name": "success",
          "type": "bool"
        }
      ],
      "stateMutability": "nonpayable",
      "type": "function"
    }
  ],
  "bytecode": "0x60806040523480156200001157600080fd5b5060405162001dd138038062001dd18339818101604052810190620000379190620002e9565b8260009081620000489190620005c4565b5081600190816200005a9190620005c4565b5060028060006101000a81548160ff021916908360ff160217905550606481620000859190620006da565b60038190555033600460006101000a81548173ffffffffffffffffffffffffffffffffffffffff021916908373ffffffffffffffffffffffffffffffffffffffff160217905550600354600560003373ffffffffffffffffffffffffffffffffffffffff1673ffffffffffffffffffffffffffffffffffffffff1681526020019081526020016000208190555050505062000725565b6000604051905090565b600080fd5b600080fd5b600080fd5b600080fd5b6000601f19601f8301169050919050565b7f4e487b7100000000000000000000000000000000000000000000000000000000600052604160045260246000fd5b620001848262000139565b810181811067ffffffffffffffff82111715620001a657620001a56200014a565b5b80604052505050565b6000620001bb6200011b565b9050620001c9828262000179565b919050565b600067ffffffffffffffff821115620001ec57620001eb6200014a565b5b620001f78262000139565b9050602081019050919050565b60005b838110156200022457808201518184015260208101905062000207565b60008484015250505050565b6000620002476200024184620001ce565b620001af565b90508281526020810184848401111562000266576200026562000134565b5b6200027384828562000204565b509392505050565b600082601f8301126200029357620002926200012f565b5b8151620002a584826020860162000230565b91505092915050565b6000819050919050565b620002c381620002ae565b8114620002cf57600080fd5b50565b600081519050620002e381620002b8565b92915050565b60008060006060848603121562000305576200030462000125565b5b600084015167ffffffffffffffff8111156200032657620003256200012a565b5b62000334868287016200027b565b935050602084015167ffffffffffffffff8111156200035857620003576200012a565b5b62000366868287016200027b565b92505060406200037986828701620002d2565b9150509250925092565b600081519050919050565b7f4e487b7100000000000000000000000000000000000000000000000000000000600052602260045260246000fd5b60006002820490506001821680620003d657607f821691505b602082108103620003ec57620003eb6200038e565b5b50919050565b60008190508160005260206000209050919050565b60006020601f8301049050919050565b600082821b905092915050565b600060088302620004567fffffffffffffffffffffffffffffffffffffffffffffffffffffffffffffffff8262000417565b62000462868362000417565b95508019841693508086168417925050509392505050565b6000819050919050565b6000620004a56200049f6200049984620002ae565b6200047a565b620002ae565b9050919050565b6000819050919050565b620004c18362000484565b620004d9620004d082620004ac565b84845462000424565b825550505050565b600090565b620004f0620004e1565b620004fd818484620004b6565b505050565b5b81811015620005255762000519600082620004e6565b60018101905062000503565b5050565b601f82111562000574576200053e81620003f2565b620005498462000407565b8101602085101562000559578190505b62000571620005688562000407565b83018262000502565b50505b505050565b600082821c905092915050565b6000620005996000198460080262000579565b1980831691505092915050565b6000620005b4838362000586565b9150826002028217905092915050565b620005cf8262000383565b67ffffffffffffffff811115620005eb57620005ea6200014a565b5b620005f78254620003bd565b6200060482828562000529565b600060209050601f8311600181146200063c576000841562000627578287015190505b620006338582620005a6565b865550620006a3565b601f1984166200064c86620003f2565b60005b8281101562000676578489015182556001820191506020850194506020810190506200064f565b8683101562000696578489015162000692601f89168262000586565b8355505b6001600288020188555050505b505050505050565b7f4e487b7100000000000000000000000000000000000000000000000000000000600052601160045260246000fd5b6000620006e782620002ae565b9150620006f483620002ae565b92508282026200070481620002ae565b915082820484148315176200071e576200071d620006ab565b5b5092915050565b61169c80620007356000396000f3fe608060405234801561001057600080fd5b50600436106100cf5760003560e01c806370a082311161008c578063a9059cbb11610066578063a9059cbb1461022a578063b7b91cae1461025a578063dd62ed3e14610278578063f8518f8f146102a8576100cf565b806370a08231146101be5780638da5cb5b146101ee57806395d89b411461020c576100cf565b806306fdde03146100d4578063095ea7b3146100f257806318160ddd1461012257806323b872dd14610140578063313ce567146101705780635e8e72f31461018e575b600080fd5b6100dc6102c4565b6040516100e99190610fbf565b60405180910390f35b61010c6004803603810190610107919061107a565b610352565b60405161011991906110d5565b60405180910390f35b61012a6104b2565b60405161013791906110ff565b60405180910390f35b61015a6004803603810190610155919061111a565b6104b8565b60405161016791906110d5565b60405180910390f35b610178610819565b6040516101859190611189565b60405180910390f35b6101a860048036038101906101a391906111a4565b61082c565b6040516101b591906110d5565b60405180910390f35b6101d860048036038101906101d391906111a4565b61084c565b6040516101e591906110ff565b60405180910390f35b6101f6610864565b60405161020391906111e0565b60405180910390f35b61021461088a565b6040516102219190610fbf565b60405180910390f35b610244600480360381019061023f919061107a565b610918565b60405161025191906110d5565b60405180910390f35b610262610b26565b60405161026f91906110d5565b60405180910390f35b610292600480360381019061028d91906111fb565b610e1f565b60405161029f91906110ff565b60405180910390f35b6102c260048036038101906102bd91906111a4565b610e44565b005b600080546102d19061126a565b80601f01602080910402602001604051908101604052809291908181526020018280546102fd9061126a565b801561034a5780601f1061031f5761010080835404028352916020019161034a565b820191906000526020600020905b81548152906001019060200180831161032d57829003601f168201915b505050505081565b60008073ffffffffffffffffffffffffffffffffffffffff168373ffffffffffffffffffffffffffffffffffffffff16036103c2576040517f08c379a00000000000000000000000000000000000000000000000000000000081526004016103b9906112e7565b60405180910390fd5b81600660003373ffffffffffffffffffffffffffffffffffffffff1673ffffffffffffffffffffffffffffffffffffffff16815260200190815260200160002060008573ffffffffffffffffffffffffffffffffffffffff1673ffffffffffffffffffffffffffffffffffffffff168152602001908152602001600020819055508273ffffffffffffffffffffffffffffffffffffffff163373ffffffffffffffffffffffffffffffffffffffff167f8c5be1e5ebec7d5bd14f71427d1e84f3dd0314c0f7b2291e5b200ac8c7c3b925846040516104a091906110ff565b60405180910390a36001905092915050565b60035481565b600081600560008673ffffffffffffffffffffffffffffffffffffffff1673ffffffffffffffffffffffffffffffffffffffff16815260200190815260200160002054101561053c576040517f08c379a000000000000000000000000000000000000000000000000000000000815260040161053390611353565b60405180910390fd5b600073ffffffffffffffffffffffffffffffffffffffff168373ffffffffffffffffffffffffffffffffffffffff16036105ab576040517f08c379a00000000000000000000000000000000000000000000000000000000081526004016105a2906112e7565b60405180910390fd5b81600660008673ffffffffffffffffffffffffffffffffffffffff1673ffffffffffffffffffffffffffffffffffffffff16815260200190815260200160002060003373ffffffffffffffffffffffffffffffffffffffff1673ffffffffffffffffffffffffffffffffffffffff16815260200190815260200160002054101561066a576040517f08c379a0000000000000000000000000000000000000000000000000000000008152600401610661906113bf565b60405180910390fd5b81600560008673ffffffffffffffffffffffffffffffffffffffff1673ffffffffffffffffffffffffffffffffffffffff16815260200190815260200160002060008282546106b9919061140e565b9250508190555081600560008573ffffffffffffffffffffffffffffffffffffffff1673ffffffffffffffffffffffffffffffffffffffff168152602001908152602001600020600082825461070f9190611442565b9250508190555081600660008673ffffffffffffffffffffffffffffffffffffffff1673ffffffffffffffffffffffffffffffffffffffff16815260200190815260200160002060003373ffffffffffffffffffffffffffffffffffffffff1673ffffffffffffffffffffffffffffffffffffffff16815260200190815260200160002060008282546107a2919061140e565b925050819055508273ffffffffffffffffffffffffffffffffffffffff168473ffffffffffffffffffffffffffffffffffffffff167fddf252ad1be2c89b69c2b068fc378daa952ba7f163c4a11628f55a4df523b3ef8460405161080691906110ff565b60405180910390a3600190509392505050565b600260009054906101000a900460ff1681565b60076020528060005260406000206000915054906101000a900460ff1681565b60056020528060005260406000206000915090505481565b600460009054906101000a900473ffffffffffffffffffffffffffffffffffffffff1681565b600180546108979061126a565b80601f01602080910402602001604051908101604052809291908181526020018280546108c39061126a565b80156109105780601f106108e557610100808354040283529160200191610910565b820191906000526020600020905b8154815290600101906020018083116108f357829003601f168201915b505050505081565b600081600560003373ffffffffffffffffffffffffffffffffffffffff1673ffffffffffffffffffffffffffffffffffffffff16815260200190815260200160002054101561099c576040517f08c379a000000000000000000000000000000000000000000000000000000000815260040161099390611353565b60405180910390fd5b600073ffffffffffffffffffffffffffffffffffffffff168373ffffffffffffffffffffffffffffffffffffffff1603610a0b576040517f08c379a0000000000000000000000000000000000000000000000000000000008152600401610a02906112e7565b60405180910390fd5b81600560003373ffffffffffffffffffffffffffffffffffffffff1673ffffffffffffffffffffffffffffffffffffffff1681526020019081526020016000206000828254610a5a919061140e565b9250508190555081600560008573ffffffffffffffffffffffffffffffffffffffff1673ffffffffffffffffffffffffffffffffffffffff1681526020019081526020016000206000828254610ab09190611442565b925050819055508273ffffffffffffffffffffffffffffffffffffffff163373ffffffffffffffffffffffffffffffffffffffff167fddf252ad1be2c89b69c2b068fc378daa952ba7f163c4a11628f55a4df523b3ef84604051610b1491906110ff565b60405180910390a36001905092915050565b600060011515600760003373ffffffffffffffffffffffffffffffffffffffff1673ffffffffffffffffffffffffffffffffffffffff16815260200190815260200160002060009054906101000a900460ff16151514610bbb576040517f08c379a0000000000000000000000000000000000000000000000000000000008152600401610bb2906114e8565b60405180910390fd5b620f424060056000600460009054906101000a900473ffffffffffffffffffffffffffffffffffffffff1673ffffffffffffffffffffffffffffffffffffffff1673ffffffffffffffffffffffffffffffffffffffff168152602001908152602001600020541015610c62576040517f08c379a0000000000000000000000000000000000000000000000000000000008152600401610c5990611554565b60405180910390fd5b620f424060056000600460009054906101000a900473ffffffffffffffffffffffffffffffffffffffff1673ffffffffffffffffffffffffffffffffffffffff1673ffffffffffffffffffffffffffffffffffffffff1681526020019081526020016000206000828254610cd6919061140e565b92505081905550620f4240600560003373ffffffffffffffffffffffffffffffffffffffff1673ffffffffffffffffffffffffffffffffffffffff1681526020019081526020016000206000828254610d2f9190611442565b925050819055506000600760003373ffffffffffffffffffffffffffffffffffffffff1673ffffffffffffffffffffffffffffffffffffffff16815260200190815260200160002060006101000a81548160ff0219169083151502179055503373ffffffffffffffffffffffffffffffffffffffff16600460009054906101000a900473ffffffffffffffffffffffffffffffffffffffff1673ffffffffffffffffffffffffffffffffffffffff167fddf252ad1be2c89b69c2b068fc378daa952ba7f163c4a11628f55a4df523b3ef620f4240604051610e1091906115b9565b60405180910390a36001905090565b6006602052816000526040600020602052806000526040600020600091509150505481565b600460009054906101000a900473ffffffffffffffffffffffffffffffffffffffff1673ffffffffffffffffffffffffffffffffffffffff163373ffffffffffffffffffffffffffffffffffffffff1614610ed4576040517f08c379a0000000000000000000000000000000000000000000000000000000008152600401610ecb90611646565b60405180910390fd5b6001600760008373ffffffffffffffffffffffffffffffffffffffff1673ffffffffffffffffffffffffffffffffffffffff16815260200190815260200160002060006101000a81548160ff02191690831515021790555050565b600081519050919050565b600082825260208201905092915050565b60005b83811015610f69578082015181840152602081019050610f4e565b60008484015250505050565b6000601f19601f8301169050919050565b6000610f9182610f2f565b610f9b8185610f3a565b9350610fab818560208601610f4b565b610fb481610f75565b840191505092915050565b60006020820190508181036000830152610fd98184610f86565b905092915050565b600080fd5b600073ffffffffffffffffffffffffffffffffffffffff82169050919050565b600061101182610fe6565b9050919050565b61102181611006565b811461102c57600080fd5b50565b60008135905061103e81611018565b92915050565b6000819050919050565b61105781611044565b811461106257600080fd5b50565b6000813590506110748161104e565b92915050565b6000806040838503121561109157611090610fe1565b5b600061109f8582860161102f565b92505060206110b085828601611065565b9150509250929050565b60008115159050919050565b6110cf816110ba565b82525050565b60006020820190506110ea60008301846110c6565b92915050565b6110f981611044565b82525050565b600060208201905061111460008301846110f0565b92915050565b60008060006060848603121561113357611132610fe1565b5b60006111418682870161102f565b93505060206111528682870161102f565b925050604061116386828701611065565b9150509250925092565b600060ff82169050919050565b6111838161116d565b82525050565b600060208201905061119e600083018461117a565b92915050565b6000602082840312156111ba576111b9610fe1565b5b60006111c88482850161102f565b91505092915050565b6111da81611006565b82525050565b60006020820190506111f560008301846111d1565b92915050565b6000806040838503121561121257611211610fe1565b5b60006112208582860161102f565b92505060206112318582860161102f565b9150509250929050565b7f4e487b7100000000000000000000000000000000000000000000000000000000600052602260045260246000fd5b6000600282049050600182168061128257607f821691505b6020821081036112955761129461123b565b5b50919050565b7f496e76616c696420616464726573730000000000000000000000000000000000600082015250565b60006112d1600f83610f3a565b91506112dc8261129b565b602082019050919050565b60006020820190508181036000830152611300816112c4565b9050919050565b7f496e73756666696369656e742062616c616e6365000000000000000000000000600082015250565b600061133d601483610f3a565b915061134882611307565b602082019050919050565b6000602082019050818103600083015261136c81611330565b9050919050565b7f416c6c6f77616e63652065786365656465640000000000000000000000000000600082015250565b60006113a9601283610f3a565b91506113b482611373565b602082019050919050565b600060208201905081810360008301526113d88161139c565b9050919050565b7f4e487b7100000000000000000000000000000000000000000000000000000000600052601160045260246000fd5b600061141982611044565b915061142483611044565b925082820390508181111561143c5761143b6113df565b5b92915050565b600061144d82611044565b915061145883611044565b92508282019050808211156114705761146f6113df565b5b92915050565b7f546f6b656e7320616c7265616479207265636965766564206f7220556e61757460008201527f686f72697a656400000000000000000000000000000000000000000000000000602082015250565b60006114d2602783610f3a565b91506114dd82611476565b604082019050919050565b60006020820190508181036000830152611501816114c5565b9050919050565b7f496e73756666696369656e74206f776e65722062616c616e6365000000000000600082015250565b600061153e601a83610f3a565b915061154982611508565b602082019050919050565b6000602082019050818103600083015261156d81611531565b9050919050565b6000819050919050565b6000819050919050565b60006115a361159e61159984611574565b61157e565b611044565b9050919050565b6115b381611588565b82525050565b60006020820190506115ce60008301846115aa565b92915050565b7f4f6e6c79206f776e65722063616e20617574686f72697a65206669727374207460008201527f72616e7366657200000000000000000000000000000000000000000000000000602082015250565b6000611630602783610f3a565b915061163b826115d4565b604082019050919050565b6000602082019050818103600083015261165f81611623565b905091905056fea2646970667358221220f39c5f8a80af2d9c83e73ded754e94efbb27a951b3be313b4cf3392a8703db8c64736f6c63430008140033",
  "linkReferences": {},
  "deployedLinkReferences": {}
}